:020000040800F2
:1000000008040020D50000089B01000899010008A1
:1000100000000000000000000000000000000000E0
:100020000000000000000000000000009F01000828
:1000300000000000000000009D010008F901000818
:10004000E7000008E7000008E7000008E7000008F4
:10005000E7000008E7000008E7000008E7000008E4
:10006000E7000008E7000008E7000008E7000008D4
:10007000E7000008E7000008E7000008E7000008C4
:10008000E7000008E7000008E7000008E7000008B4
:10009000E7000008E7000008E7000008E7000008A4
:1000A000E7000008E7000008E7000008E700000894
:1000B000E7000008E7000008E7000008E700000884
:1000C0000348854600F03EF80048004781020008DA
:1000D000080400200448804704480047FEE7FEE784
:1000E000FEE7FEE7FEE7FEE7FD010008C1000008AD
:1000F00030B50B46014600202022012409E00D46C0
:10010000D5409D4205D31D469540491B2546954047
:1001100040191546521E002DF1DC30BD70B500248B
:100120002546002801DA01244042002901DA012590
:100130004942FFF7DDFFAC4200D04042002C00D026
:10014000494270BD064C0125064E05E0E36807CC28
:100150002B430C3C98471034B442F7D3FFF7B4FF5D
:100160007803000898030008FF212D31484310B59B
:10017000FF214B31FFF7BCFF06495022098B401A83
:100180005043044A20325288511AFFF7C7FF1E30ED
:1001900010BD0000A0F7FF1FFEE7704770477047D3
:1001A000134911200860134841684160416841606B
:1001B00041687B22D2039143416041680522D20409
:1001C0001143416001680122120611430160016878
:1001D0008901FCD541688908890041604168022293
:1001E0001143416041680907890F0229FAD170471C
:1001F00000200240001002407047000010B5144873
:1002000001680122114301604168124A11404160B6
:100210000168114A11400160016801229204914372
:10022000016041683F22120491434160C16A09099B
:100230000901C162016B094A11400163416B490820
:100240004900416300218160FFF7AAFF10BD000053
:10025000001002400CB8FF08FFFFF6FE2CFEFCFF6A
:1002600002E008C8121F08C1002AFAD1704770477F
:10027000002001E001C1121F002AFBD170470000DD
:10028000344841690122D20411434161324D296849
:100290000F221204914305221204891829608169F2
:1002A000461531438161426B01210A434263426B2F
:1002B0009207FCD5294CA268D20703D0A268520845
:1002C0005200A260A2680123DB071A43A260A26861
:1002D000002AFCDBA2680A43A2602268D207F9D098
:1002E000E26805231B021A43E26001221204A262A3
:1002F000626907231A436261194A93680127FF055F
:100300003B4393608269FB111A438261154842683E
:1003100020231A434260144A8262144AC26202686D
:100320000A430260A06804210843A060104F2068BF
:100330004007FCD5094840300068FFF715FF3860DA
:100340002D280C4801DDA86100E0A86268697040B2
:100350006861ECE7001002400008004800240140FA
:100360000027014000400140BF03000050C30000CF
:100370000000002000010000980300080000002099
:1003800004000000600200089C0300080400002034
:0C039000040400007002000800000000DF
:04000005080000C12E
:00000001FF
